{
  "address": "0xB185004C836695B9102eEbf1779e5A46B89248Fe",
  "abi": [
    {
      "inputs": [
        {
          "internalType": "uint256",
          "name": "supply",
          "type": "uint256"
        },
        {
          "internalType": "address",
          "name": "receiver",
          "type": "address"
        }
      ],
      "stateMutability": "nonpayable",
      "type": "constructor"
    },
    {
      "anonymous": false,
      "inputs": [
        {
          "indexed": true,
          "internalType": "address",
          "name": "owner",
          "type": "address"
        },
        {
          "indexed": true,
          "internalType": "address",
          "name": "spender",
          "type": "address"
        },
        {
          "indexed": false,
          "internalType": "uint256",
          "name": "value",
          "type": "uint256"
        }
      ],
      "name": "Approval",
      "type": "event"
    },
    {
      "anonymous": false,
      "inputs": [
        {
          "indexed": true,
          "internalType": "address",
          "name": "delegator",
          "type": "address"
        },
        {
          "indexed": true,
          "internalType": "address",
          "name": "fromDelegate",
          "type": "address"
        },
        {
          "indexed": true,
          "internalType": "address",
          "name": "toDelegate",
          "type": "address"
        }
      ],
      "name": "DelegateChanged",
      "type": "event"
    },
    {
      "anonymous": false,
      "inputs": [
        {
          "indexed": true,
          "internalType": "address",
          "name": "delegate",
          "type": "address"
        },
        {
          "indexed": false,
          "internalType": "uint256",
          "name": "previousBalance",
          "type": "uint256"
        },
        {
          "indexed": false,
          "internalType": "uint256",
          "name": "newBalance",
          "type": "uint256"
        }
      ],
      "name": "DelegateVotesChanged",
      "type": "event"
    },
    {
      "anonymous": false,
      "inputs": [
        {
          "indexed": true,
          "internalType": "address",
          "name": "previousOwner",
          "type": "address"
        },
        {
          "indexed": true,
          "internalType": "address",
          "name": "newOwner",
          "type": "address"
        }
      ],
      "name": "OwnershipTransferred",
      "type": "event"
    },
    {
      "anonymous": false,
      "inputs": [
        {
          "indexed": true,
          "internalType": "address",
          "name": "from",
          "type": "address"
        },
        {
          "indexed": true,
          "internalType": "address",
          "name": "to",
          "type": "address"
        },
        {
          "indexed": false,
          "internalType": "uint256",
          "name": "value",
          "type": "uint256"
        }
      ],
      "name": "Transfer",
      "type": "event"
    },
    {
      "inputs": [],
      "name": "DOMAIN_SEPARATOR",
      "outputs": [
        {
          "internalType": "bytes32",
          "name": "",
          "type": "bytes32"
        }
      ],
      "stateMutability": "view",
      "type": "function"
    },
    {
      "inputs": [
        {
          "internalType": "address",
          "name": "owner",
          "type": "address"
        },
        {
          "internalType": "address",
          "name": "spender",
          "type": "address"
        }
      ],
      "name": "allowance",
      "outputs": [
        {
          "internalType": "uint256",
          "name": "",
          "type": "uint256"
        }
      ],
      "stateMutability": "view",
      "type": "function"
    },
    {
      "inputs": [
        {
          "internalType": "address",
          "name": "spender",
          "type": "address"
        },
        {
          "internalType": "uint256",
          "name": "amount",
          "type": "uint256"
        }
      ],
      "name": "approve",
      "outputs": [
        {
          "internalType": "bool",
          "name": "",
          "type": "bool"
        }
      ],
      "stateMutability": "nonpayable",
      "type": "function"
    },
    {
      "inputs": [
        {
          "internalType": "address",
          "name": "account",
          "type": "address"
        }
      ],
      "name": "balanceOf",
      "outputs": [
        {
          "internalType": "uint256",
          "name": "",
          "type": "uint256"
        }
      ],
      "stateMutability": "view",
      "type": "function"
    },
    {
      "inputs": [
        {
          "internalType": "address",
          "name": "account",
          "type": "address"
        },
        {
          "internalType": "uint32",
          "name": "pos",
          "type": "uint32"
        }
      ],
      "name": "checkpoints",
      "outputs": [
        {
          "components": [
            {
              "internalType": "uint32",
              "name": "fromBlock",
              "type": "uint32"
            },
            {
              "internalType": "uint224",
              "name": "votes",
              "type": "uint224"
            }
          ],
          "internalType": "struct ERC20Votes.Checkpoint",
          "name": "",
          "type": "tuple"
        }
      ],
      "stateMutability": "view",
      "type": "function"
    },
    {
      "inputs": [],
      "name": "decimals",
      "outputs": [
        {
          "internalType": "uint8",
          "name": "",
          "type": "uint8"
        }
      ],
      "stateMutability": "view",
      "type": "function"
    },
    {
      "inputs": [
        {
          "internalType": "address",
          "name": "spender",
          "type": "address"
        },
        {
          "internalType": "uint256",
          "name": "subtractedValue",
          "type": "uint256"
        }
      ],
      "name": "decreaseAllowance",
      "outputs": [
        {
          "internalType": "bool",
          "name": "",
          "type": "bool"
        }
      ],
      "stateMutability": "nonpayable",
      "type": "function"
    },
    {
      "inputs": [
        {
          "internalType": "address",
          "name": "delegatee",
          "type": "address"
        }
      ],
      "name": "delegate",
      "outputs": [],
      "stateMutability": "nonpayable",
      "type": "function"
    },
    {
      "inputs": [
        {
          "internalType": "address",
          "name": "delegatee",
          "type": "address"
        },
        {
          "internalType": "uint256",
          "name": "nonce",
          "type": "uint256"
        },
        {
          "internalType": "uint256",
          "name": "expiry",
          "type": "uint256"
        },
        {
          "internalType": "uint8",
          "name": "v",
          "type": "uint8"
        },
        {
          "internalType": "bytes32",
          "name": "r",
          "type": "bytes32"
        },
        {
          "internalType": "bytes32",
          "name": "s",
          "type": "bytes32"
        }
      ],
      "name": "delegateBySig",
      "outputs": [],
      "stateMutability": "nonpayable",
      "type": "function"
    },
    {
      "inputs": [
        {
          "internalType": "address",
          "name": "account",
          "type": "address"
        }
      ],
      "name": "delegates",
      "outputs": [
        {
          "internalType": "address",
          "name": "",
          "type": "address"
        }
      ],
      "stateMutability": "view",
      "type": "function"
    },
    {
      "inputs": [
        {
          "internalType": "uint256",
          "name": "blockNumber",
          "type": "uint256"
        }
      ],
      "name": "getPastTotalSupply",
      "outputs": [
        {
          "internalType": "uint256",
          "name": "",
          "type": "uint256"
        }
      ],
      "stateMutability": "view",
      "type": "function"
    },
    {
      "inputs": [
        {
          "internalType": "address",
          "name": "account",
          "type": "address"
        },
        {
          "internalType": "uint256",
          "name": "blockNumber",
          "type": "uint256"
        }
      ],
      "name": "getPastVotes",
      "outputs": [
        {
          "internalType": "uint256",
          "name": "",
          "type": "uint256"
        }
      ],
      "stateMutability": "view",
      "type": "function"
    },
    {
      "inputs": [
        {
          "internalType": "address",
          "name": "account",
          "type": "address"
        }
      ],
      "name": "getVotes",
      "outputs": [
        {
          "internalType": "uint256",
          "name": "",
          "type": "uint256"
        }
      ],
      "stateMutability": "view",
      "type": "function"
    },
    {
      "inputs": [
        {
          "internalType": "address",
          "name": "spender",
          "type": "address"
        },
        {
          "internalType": "uint256",
          "name": "addedValue",
          "type": "uint256"
        }
      ],
      "name": "increaseAllowance",
      "outputs": [
        {
          "internalType": "bool",
          "name": "",
          "type": "bool"
        }
      ],
      "stateMutability": "nonpayable",
      "type": "function"
    },
    {
      "inputs": [],
      "name": "minimumMintInterval",
      "outputs": [
        {
          "internalType": "uint256",
          "name": "",
          "type": "uint256"
        }
      ],
      "stateMutability": "view",
      "type": "function"
    },
    {
      "inputs": [
        {
          "internalType": "address",
          "name": "dest",
          "type": "address"
        },
        {
          "internalType": "uint256",
          "name": "amount",
          "type": "uint256"
        }
      ],
      "name": "mint",
      "outputs": [],
      "stateMutability": "nonpayable",
      "type": "function"
    },
    {
      "inputs": [],
      "name": "mintCap",
      "outputs": [
        {
          "internalType": "uint256",
          "name": "",
          "type": "uint256"
        }
      ],
      "stateMutability": "view",
      "type": "function"
    },
    {
      "inputs": [],
      "name": "name",
      "outputs": [
        {
          "internalType": "string",
          "name": "",
          "type": "string"
        }
      ],
      "stateMutability": "view",
      "type": "function"
    },
    {
      "inputs": [],
      "name": "nextMint",
      "outputs": [
        {
          "internalType": "uint256",
          "name": "",
          "type": "uint256"
        }
      ],
      "stateMutability": "view",
      "type": "function"
    },
    {
      "inputs": [
        {
          "internalType": "address",
          "name": "owner",
          "type": "address"
        }
      ],
      "name": "nonces",
      "outputs": [
        {
          "internalType": "uint256",
          "name": "",
          "type": "uint256"
        }
      ],
      "stateMutability": "view",
      "type": "function"
    },
    {
      "inputs": [
        {
          "internalType": "address",
          "name": "account",
          "type": "address"
        }
      ],
      "name": "numCheckpoints",
      "outputs": [
        {
          "internalType": "uint32",
          "name": "",
          "type": "uint32"
        }
      ],
      "stateMutability": "view",
      "type": "function"
    },
    {
      "inputs": [],
      "name": "owner",
      "outputs": [
        {
          "internalType": "address",
          "name": "",
          "type": "address"
        }
      ],
      "stateMutability": "view",
      "type": "function"
    },
    {
      "inputs": [
        {
          "internalType": "address",
          "name": "owner",
          "type": "address"
        },
        {
          "internalType": "address",
          "name": "spender",
          "type": "address"
        },
        {
          "internalType": "uint256",
          "name": "value",
          "type": "uint256"
        },
        {
          "internalType": "uint256",
          "name": "deadline",
          "type": "uint256"
        },
        {
          "internalType": "uint8",
          "name": "v",
          "type": "uint8"
        },
        {
          "internalType": "bytes32",
          "name": "r",
          "type": "bytes32"
        },
        {
          "internalType": "bytes32",
          "name": "s",
          "type": "bytes32"
        }
      ],
      "name": "permit",
      "outputs": [],
      "stateMutability": "nonpayable",
      "type": "function"
    },
    {
      "inputs": [],
      "name": "renounceOwnership",
      "outputs": [],
      "stateMutability": "nonpayable",
      "type": "function"
    },
    {
      "inputs": [],
      "name": "symbol",
      "outputs": [
        {
          "internalType": "string",
          "name": "",
          "type": "string"
        }
      ],
      "stateMutability": "view",
      "type": "function"
    },
    {
      "inputs": [],
      "name": "totalSupply",
      "outputs": [
        {
          "internalType": "uint256",
          "name": "",
          "type": "uint256"
        }
      ],
      "stateMutability": "view",
      "type": "function"
    },
    {
      "inputs": [
        {
          "internalType": "address",
          "name": "recipient",
          "type": "address"
        },
        {
          "internalType": "uint256",
          "name": "amount",
          "type": "uint256"
        }
      ],
      "name": "transfer",
      "outputs": [
        {
          "internalType": "bool",
          "name": "",
          "type": "bool"
        }
      ],
      "stateMutability": "nonpayable",
      "type": "function"
    },
    {
      "inputs": [
        {
          "internalType": "address",
          "name": "sender",
          "type": "address"
        },
        {
          "internalType": "address",
          "name": "recipient",
          "type": "address"
        },
        {
          "internalType": "uint256",
          "name": "amount",
          "type": "uint256"
        }
      ],
      "name": "transferFrom",
      "outputs": [
        {
          "internalType": "bool",
          "name": "",
          "type": "bool"
        }
      ],
      "stateMutability": "nonpayable",
      "type": "function"
    },
    {
      "inputs": [
        {
          "internalType": "address",
          "name": "newOwner",
          "type": "address"
        }
      ],
      "name": "transferOwnership",
      "outputs": [],
      "stateMutability": "nonpayable",
      "type": "function"
    }
  ],
  "transactionHash": "0x1c3e806e16a03c8f1b104f9b1db0969435390117f392fc9fd954601dc5adc0a1",
  "args": [
    "100000000000000000000000000",
    "0x7566aB24352C6Ee1ad6dd1BF07bb63C5852aE30f"
  ],
  "solcInputHash": "a727ac10417d90685af2ed455c8b7482",
  "bytecode": "0x6101406040527f6e71edae12b1b97f4d1f60370fef10105fa2faae0126114a169c64845d6126c9610120908152503480156200003a57600080fd5b506040516200527538038062005275833981810160405281019062000060919062000d4d565b6040518060400160405280600d81526020017f4f70656e536b7920546f6b656e00000000000000000000000000000000000000815250806040518060400160405280600181526020017f31000000000000000000000000000000000000000000000000000000000000008152506040518060400160405280600d81526020017f4f70656e536b7920546f6b656e000000000000000000000000000000000000008152506040518060400160405280600481526020017f4f534b590000000000000000000000000000000000000000000000000000000081525081600390805190602001906200015192919062000c6f565b5080600490805190602001906200016a92919062000c6f565b50505060008280519060200120905060008280519060200120905060007f8b73c3c69bb8fe3d512ecc4cf759cc79239f7b179b0ffacaa9a75d522b39400f90508260c081815250508160e081815250504660a08181525050620001d58184846200023d60201b60201c565b608081815250508061010081815250505050505050506200020b620001ff6200027960201b60201c565b6200028160201b60201c565b6200021d81836200034760201b60201c565b6301e13380426200022f919062000fa3565b600a81905550505062001295565b600083838346306040516020016200025a95949392919062000e63565b6040516020818303038152906040528051906020012090509392505050565b600033905090565b6000600960009054906101000a900473ffffffffffffffffffffffffffffffffffffffff16905081600960006101000a81548173ffffffffffffffffffffffffffffffffffffffff021916908373ffffffffffffffffffffffffffffffffffffffff1602179055508173ffffffffffffffffffffffffffffffffffffffff168173ffffffffffffffffffffffffffffffffffffffff167f8be0079c531659141344cd1fd0a4f28419497f9722a3daafe3b4186f6b6457e060405160405180910390a35050565b6200035e82826200036260201b6200146f1760201c565b5050565b6200037982826200042060201b620014fc1760201c565b620003896200059960201b60201c565b7bffffffffffffffffffffffffffffffffffffffffffffffffffffffff16620003b7620005bd60201b60201c565b1115620003fb576040517f08c379a0000000000000000000000000000000000000000000000000000000008152600401620003f29062000ec0565b60405180910390fd5b6200041a6008620005c760201b6200165c1783620005df60201b60201c565b50505050565b600073ffffffffffffffffffffffffffffffffffffffff168273ffffffffffffffffffffffffffffffffffffffff16141562000493576040517f08c379a00000000000000000000000000000000000000000000000000000000081526004016200048a9062000f26565b60405180910390fd5b620004a7600083836200089060201b60201c565b8060026000828254620004bb919062000fa3565b92505081905550806000808473ffffffffffffffffffffffffffffffffffffffff1673ffffffffffffffffffffffffffffffffffffffff168152602001908152602001600020600082825462000512919062000fa3565b925050819055508173ffffffffffffffffffffffffffffffffffffffff16600073ffffffffffffffffffffffffffffffffffffffff167fddf252ad1be2c89b69c2b068fc378daa952ba7f163c4a11628f55a4df523b3ef8360405162000579919062000f48565b60405180910390a362000595600083836200089560201b60201c565b5050565b60007bffffffffffffffffffffffffffffffffffffffffffffffffffffffff905090565b6000600254905090565b60008183620005d7919062000fa3565b905092915050565b6000806000858054905090506000811462000654578560018262000604919062001000565b8154811062000618576200061762001117565b5b9060005260206000200160000160049054906101000a90047bffffffffffffffffffffffffffffffffffffffffffffffffffffffff1662000657565b60005b7bffffffffffffffffffffffffffffffffffffffffffffffffffffffff1692506200068383858760201c565b9150600081118015620006dc57504386600183620006a2919062001000565b81548110620006b657620006b562001117565b5b9060005260206000200160000160009054906101000a900463ffffffff1663ffffffff16145b156200077d57620006f882620008b260201b620016721760201c565b8660018362000708919062001000565b815481106200071c576200071b62001117565b5b9060005260206000200160000160046101000a8154817bffffffffffffffffffffffffffffffffffffffffffffffffffffffff02191690837bffffffffffffffffffffffffffffffffffffffffffffffffffffffff16021790555062000887565b8560405180604001604052806200079f436200092060201b620016dd1760201c565b63ffffffff168152602001620007c085620008b260201b620016721760201c565b7bffffffffffffffffffffffffffffffffffffffffffffffffffffffff168152509080600181540180825580915050600190039060005260206000200160009091909190915060008201518160000160006101000a81548163ffffffff021916908363ffffffff16021790555060208201518160000160046101000a8154817bffffffffffffffffffffffffffffffffffffffffffffffffffffffff02191690837bffffffffffffffffffffffffffffffffffffffffffffffffffffffff16021790555050505b50935093915050565b505050565b620008ad8383836200097660201b620017301760201c565b505050565b60007bffffffffffffffffffffffffffffffffffffffffffffffffffffffff801682111562000918576040517f08c379a00000000000000000000000000000000000000000000000000000000081526004016200090f9062000ee2565b60405180910390fd5b819050919050565b600063ffffffff80168211156200096e576040517f08c379a0000000000000000000000000000000000000000000000000000000008152600401620009659062000f04565b60405180910390fd5b819050919050565b6200098e838383620009c660201b6200175b1760201c565b620009c1620009a384620009cb60201b60201c565b620009b484620009cb60201b60201c565b8362000a3460201b60201c565b505050565b505050565b6000600660008373ffffffffffffffffffffffffffffffffffffffff1673ffffffffffffffffffffffffffffffffffffffff16815260200190815260200160002060009054906101000a900473ffffffffffffffffffffffffffffffffffffffff169050919050565b8173ffffffffffffffffffffffffffffffffffffffff168373ffffffffffffffffffffffffffffffffffffffff161415801562000a715750600081115b1562000c5257600073ffffffffffffffffffffffffffffffffffffffff168373ffffffffffffffffffffffffffffffffffffffff161462000b645760008062000b0b600760008773ffffffffffffffffffffffffffffffffffffffff1673ffffffffffffffffffffffffffffffffffffffff16815260200190815260200160002062000c5760201b620017601785620005df60201b60201c565b915091508473ffffffffffffffffffffffffffffffffffffffff167fdec2bacdd2f05b59de34da9b523dff8be42e5e38e818c82fdb0bae774387a724838360405162000b5992919062000f65565b60405180910390a250505b600073ffffffffffffffffffffffffffffffffffffffff168273ffffffffffffffffffffffffffffffffffffffff161462000c515760008062000bf8600760008673ffffffffffffffffffffffffffffffffffffffff1673ffffffffffffffffffffffffffffffffffffffff168152602001908152602001600020620005c760201b6200165c1785620005df60201b60201c565b915091508373ffffffffffffffffffffffffffffffffffffffff167fdec2bacdd2f05b59de34da9b523dff8be42e5e38e818c82fdb0bae774387a724838360405162000c4692919062000f65565b60405180910390a250505b5b505050565b6000818362000c67919062001000565b905092915050565b82805462000c7d9062001083565b90600052602060002090601f01602090048101928262000ca1576000855562000ced565b82601f1062000cbc57805160ff191683800117855562000ced565b8280016001018555821562000ced579182015b8281111562000cec57825182559160200191906001019062000ccf565b5b50905062000cfc919062000d00565b5090565b5b8082111562000d1b57600081600090555060010162000d01565b5090565b60008151905062000d308162001261565b92915050565b60008151905062000d47816200127b565b92915050565b6000806040838503121562000d675762000d6662001146565b5b600062000d778582860162000d36565b925050602062000d8a8582860162000d1f565b9150509250929050565b62000d9f816200103b565b82525050565b62000db0816200104f565b82525050565b600062000dc560308362000f92565b915062000dd2826200114b565b604082019050919050565b600062000dec60278362000f92565b915062000df9826200119a565b604082019050919050565b600062000e1360268362000f92565b915062000e2082620011e9565b604082019050919050565b600062000e3a601f8362000f92565b915062000e478262001238565b602082019050919050565b62000e5d8162001079565b82525050565b600060a08201905062000e7a600083018862000da5565b62000e89602083018762000da5565b62000e98604083018662000da5565b62000ea7606083018562000e52565b62000eb6608083018462000d94565b9695505050505050565b6000602082019050818103600083015262000edb8162000db6565b9050919050565b6000602082019050818103600083015262000efd8162000ddd565b9050919050565b6000602082019050818103600083015262000f1f8162000e04565b9050919050565b6000602082019050818103600083015262000f418162000e2b565b9050919050565b600060208201905062000f5f600083018462000e52565b92915050565b600060408201905062000f7c600083018562000e52565b62000f8b602083018462000e52565b9392505050565b600082825260208201905092915050565b600062000fb08262001079565b915062000fbd8362001079565b9250827fffffffffffffffffffffffffffffffffffffffffffffffffffffffffffffffff0382111562000ff55762000ff4620010b9565b5b828201905092915050565b60006200100d8262001079565b91506200101a8362001079565b92508282101562001030576200102f620010b9565b5b828203905092915050565b6000620010488262001059565b9050919050565b6000819050919050565b600073ffffffffffffffffffffffffffffffffffffffff82169050919050565b6000819050919050565b600060028204905060018216806200109c57607f821691505b60208210811415620010b357620010b2620010e8565b5b50919050565b7f4e487b7100000000000000000000000000000000000000000000000000000000600052601160045260246000fd5b7f4e487b7100000000000000000000000000000000000000000000000000000000600052602260045260246000fd5b7f4e487b7100000000000000000000000000000000000000000000000000000000600052603260045260246000fd5b600080fd5b7f4552433230566f7465733a20746f74616c20737570706c79207269736b73206f60008201527f766572666c6f77696e6720766f74657300000000000000000000000000000000602082015250565b7f53616665436173743a2076616c756520646f65736e27742066697420696e203260008201527f3234206269747300000000000000000000000000000000000000000000000000602082015250565b7f53616665436173743a2076616c756520646f65736e27742066697420696e203360008201527f3220626974730000000000000000000000000000000000000000000000000000602082015250565b7f45524332303a206d696e7420746f20746865207a65726f206164647265737300600082015250565b6200126c816200103b565b81146200127857600080fd5b50565b620012868162001079565b81146200129257600080fd5b50565b60805160a05160c05160e0516101005161012051613f90620012e560003960006110e501526000611c2101526000611c6301526000611c4201526000611bce01526000611bf60152613f906000f3fe608060405234801561001057600080fd5b50600436106101cf5760003560e01c8063715018a611610104578063a457c2d7116100a2578063d505accf11610071578063d505accf14610580578063dd62ed3e1461059c578063f1127ed8146105cc578063f2fde38b146105fc576101cf565b8063a457c2d7146104e6578063a9059cbb14610516578063c3cda52014610546578063cf66544314610562576101cf565b80638da5cb5b116100de5780638da5cb5b1461044a5780638e539e8c1461046857806395d89b41146104985780639ab24eb0146104b6576101cf565b8063715018a6146103f257806376c71ca1146103fc5780637ecebe001461041a576101cf565b80633a46b1a811610171578063587cde1e1161014b578063587cde1e146103465780635c19a95c146103765780636fcfff451461039257806370a08231146103c2576101cf565b80633a46b1a8146102dc57806340c10f191461030c578063515b612a14610328576101cf565b806323b872dd116101ad57806323b872dd14610240578063313ce567146102705780633644e5151461028e57806339509351146102ac576101cf565b806306fdde03146101d4578063095ea7b3146101f257806318160ddd14610222575b600080fd5b6101dc610618565b6040516101e991906131d8565b60405180910390f35b61020c60048036038101906102079190612a76565b6106aa565b6040516102199190613064565b60405180910390f35b61022a6106c8565b6040516102379190613515565b60405180910390f35b61025a60048036038101906102559190612981565b6106d2565b6040516102679190613064565b60405180910390f35b6102786107ca565b6040516102859190613574565b60405180910390f35b6102966107d3565b6040516102a3919061307f565b60405180910390f35b6102c660048036038101906102c19190612a76565b6107e2565b6040516102d39190613064565b60405180910390f35b6102f660048036038101906102f19190612a76565b61088e565b6040516103039190613515565b60405180910390f35b61032660048036038101906103219190612a76565b610922565b005b610330610a6a565b60405161033d9190613515565b60405180910390f35b610360600480360381019061035b9190612914565b610a72565b60405161036d9190613049565b60405180910390f35b610390600480360381019061038b9190612914565b610adb565b005b6103ac60048036038101906103a79190612914565b610aef565b6040516103b99190613559565b60405180910390f35b6103dc60048036038101906103d79190612914565b610b43565b6040516103e99190613515565b60405180910390f35b6103fa610b8b565b005b610404610c13565b6040516104119190613515565b60405180910390f35b610434600480360381019061042f9190612914565b610c18565b6040516104419190613515565b60405180910390f35b610452610c68565b60405161045f9190613049565b60405180910390f35b610482600480360381019061047d9190612b83565b610c92565b60405161048f9190613515565b60405180910390f35b6104a0610ce8565b6040516104ad91906131d8565b60405180910390f35b6104d060048036038101906104cb9190612914565b610d7a565b6040516104dd9190613515565b60405180910390f35b61050060048036038101906104fb9190612a76565b610e8b565b60405161050d9190613064565b60405180910390f35b610530600480360381019061052b9190612a76565b610f76565b60405161053d9190613064565b60405180910390f35b610560600480360381019061055b9190612ab6565b610f94565b005b61056a611098565b6040516105779190613515565b60405180910390f35b61059a600480360381019061059591906129d4565b61109e565b005b6105b660048036038101906105b19190612941565b6111e0565b6040516105c39190613515565b60405180910390f35b6105e660048036038101906105e19190612b43565b611267565b6040516105f391906134fa565b60405180910390f35b61061660048036038101906106119190612914565b611377565b005b60606003805461062790613795565b80601f016020809104026020016040519081016040528092919081815260200182805461065390613795565b80156106a05780601f10610675576101008083540402835291602001916106a0565b820191906000526020600020905b81548152906001019060200180831161068357829003601f168201915b5050505050905090565b60006106be6106b7611776565b848461177e565b6001905092915050565b6000600254905090565b60006106df848484611949565b6000600160008673ffffffffffffffffffffffffffffffffffffffff1673ffffffffffffffffffffffffffffffffffffffff168152602001908152602001600020600061072a611776565b73ffffffffffffffffffffffffffffffffffffffff1673ffffffffffffffffffffffffffffffffffffffff168152602001908152602001600020549050828110156107aa576040517f08c379a00000000000000000000000000000000000000000000000000000000081526004016107a1906133da565b60405180910390fd5b6107be856107b6611776565b85840361177e565b60019150509392505050565b60006012905090565b60006107dd611bca565b905090565b60006108846107ef611776565b8484600160006107fd611776565b73ffffffffffffffffffffffffffffffffffffffff1673ffffffffffffffffffffffffffffffffffffffff16815260200190815260200160002060008873ffffffffffffffffffffffffffffffffffffffff1673ffffffffffffffffffffffffffffffffffffffff1681526020019081526020016000205461087f91906135b6565b61177e565b6001905092915050565b60004382106108d2576040517f08c379a00000000000000000000000000000000000000000000000000000000081526004016108c99061323a565b60405180910390fd5b61091a600760008573ffffffffffffffffffffffffffffffffffffffff1673ffffffffffffffffffffffffffffffffffffffff16815260200190815260200160002083611c8d565b905092915050565b61092a611776565b73ffffffffffffffffffffffffffffffffffffffff16610948610c68565b73ffffffffffffffffffffffffffffffffffffffff161461099e576040517f08c379a00000000000000000000000000000000000000000000000000000000081526004016109959061341a565b60405180910390fd5b61271060c86109ab6106c8565b6109b5919061363d565b6109bf919061360c565b811115610a01576040517f08c379a00000000000000000000000000000000000000000000000000000000081526004016109f8906132fa565b60405180910390fd5b600a54421015610a46576040517f08c379a0000000000000000000000000000000000000000000000000000000008152600401610a3d9061335a565b60405180910390fd5b6301e1338042610a5691906135b6565b600a81905550610a668282611d99565b5050565b6301e1338081565b6000600660008373ffffffffffffffffffffffffffffffffffffffff1673ffffffffffffffffffffffffffffffffffffffff16815260200190815260200160002060009054906101000a900473ffffffffffffffffffffffffffffffffffffffff169050919050565b610aec610ae6611776565b82611da7565b50565b6000610b3c600760008473ffffffffffffffffffffffffffffffffffffffff1673ffffffffffffffffffffffffffffffffffffffff168152602001908152602001600020805490506116dd565b9050919050565b60008060008373ffffffffffffffffffffffffffffffffffffffff1673ffffffffffffffffffffffffffffffffffffffff168152602001908152602001600020549050919050565b610b93611776565b73ffffffffffffffffffffffffffffffffffffffff16610bb1610c68565b73ffffffffffffffffffffffffffffffffffffffff1614610c07576040517f08c379a0000000000000000000000000000000000000000000000000000000008152600401610bfe9061341a565b60405180910390fd5b610c116000611ec1565b565b60c881565b6000610c61600560008473ffffffffffffffffffffffffffffffffffffffff1673ffffffffffffffffffffffffffffffffffffffff168152602001908152602001600020611f87565b9050919050565b6000600960009054906101000a900473ffffffffffffffffffffffffffffffffffffffff16905090565b6000438210610cd6576040517f08c379a0000000000000000000000000000000000000000000000000000000008152600401610ccd9061323a565b60405180910390fd5b610ce1600883611c8d565b9050919050565b606060048054610cf790613795565b80601f0160208091040260200160405190810160405280929190818152602001828054610d2390613795565b8015610d705780601f10610d4557610100808354040283529160200191610d70565b820191906000526020600020905b815481529060010190602001808311610d5357829003601f168201915b5050505050905090565b600080600760008473ffffffffffffffffffffffffffffffffffffffff1673ffffffffffffffffffffffffffffffffffffffff16815260200190815260200160002080549050905060008114610e6257600760008473ffffffffffffffffffffffffffffffffffffffff1673ffffffffffffffffffffffffffffffffffffffff168152602001908152602001600020600182610e169190613697565b81548110610e2757610e2661388d565b5b9060005260206000200160000160049054906101000a90047bffffffffffffffffffffffffffffffffffffffffffffffffffffffff16610e65565b60005b7bffffffffffffffffffffffffffffffffffffffffffffffffffffffff16915050919050565b60008060016000610e9a611776565b73ffffffffffffffffffffffffffffffffffffffff1673ffffffffffffffffffffffffffffffffffffffff16815260200190815260200160002060008573ffffffffffffffffffffffffffffffffffffffff1673ffffffffffffffffffffffffffffffffffffffff16815260200190815260200160002054905082811015610f57576040517f08c379a0000000000000000000000000000000000000000000000000000000008152600401610f4e906134ba565b60405180910390fd5b610f6b610f62611776565b8585840361177e565b600191505092915050565b6000610f8a610f83611776565b8484611949565b6001905092915050565b83421115610fd7576040517f08c379a0000000000000000000000000000000000000000000000000000000008152600401610fce9061325a565b60405180910390fd5b60006110396110317fe48329057bfd03d55e49b547132e39cffd9c1820ad7b9d4c5307691425d15adf89898960405160200161101694939291906130fb565b60405160208183030381529060405280519060200120611f95565b858585611faf565b905061104481611fda565b8614611085576040517f08c379a000000000000000000000000000000000000000000000000000000000815260040161107c9061329a565b60405180910390fd5b61108f8188611da7565b50505050505050565b600a5481565b834211156110e1576040517f08c379a00000000000000000000000000000000000000000000000000000000081526004016110d89061331a565b60405180910390fd5b60007f00000000000000000000000000000000000000000000000000000000000000008888886111108c611fda565b896040516020016111269695949392919061309a565b604051602081830303815290604052805190602001209050600061114982611f95565b9050600061115982878787611faf565b90508973ffffffffffffffffffffffffffffffffffffffff168173ffffffffffffffffffffffffffffffffffffffff16146111c9576040517f08c379a00000000000000000000000000000000000000000000000000000000081526004016111c0906133ba565b60405180910390fd5b6111d48a8a8a61177e565b50505050505050505050565b6000600160008473ffffffffffffffffffffffffffffffffffffffff1673ffffffffffffffffffffffffffffffffffffffff16815260200190815260200160002060008373ffffffffffffffffffffffffffffffffffffffff1673ffffffffffffffffffffffffffffffffffffffff16815260200190815260200160002054905092915050565b61126f61286d565b600760008473ffffffffffffffffffffffffffffffffffffffff1673ffffffffffffffffffffffffffffffffffffffff1681526020019081526020016000208263ffffffff16815481106112c6576112c561388d565b5b906000526020600020016040518060400160405290816000820160009054906101000a900463ffffffff1663ffffffff1663ffffffff1681526020016000820160049054906101000a90047bffffffffffffffffffffffffffffffffffffffffffffffffffffffff167bffffffffffffffffffffffffffffffffffffffffffffffffffffffff167bffffffffffffffffffffffffffffffffffffffffffffffffffffffff1681525050905092915050565b61137f611776565b73ffffffffffffffffffffffffffffffffffffffff1661139d610c68565b73ffffffffffffffffffffffffffffffffffffffff16146113f3576040517f08c379a00000000000000000000000000000000000000000000000000000000081526004016113ea9061341a565b60405180910390fd5b600073ffffffffffffffffffffffffffffffffffffffff168173ffffffffffffffffffffffffffffffffffffffff161415611463576040517f08c379a000000000000000000000000000000000000000000000000000000000815260040161145a906132ba565b60405180910390fd5b61146c81611ec1565b50565b61147982826114fc565b611481612038565b7bffffffffffffffffffffffffffffffffffffffffffffffffffffffff166114a76106c8565b11156114e8576040517f08c379a00000000000000000000000000000000000000000000000000000000081526004016114df906133fa565b60405180910390fd5b6114f6600861165c8361205c565b50505050565b600073ffffffffffffffffffffffffffffffffffffffff168273ffffffffffffffffffffffffffffffffffffffff16141561156c576040517f08c379a0000000000000000000000000000000000000000000000000000000008152600401611563906134da565b60405180910390fd5b611578600083836122d4565b806002600082825461158a91906135b6565b92505081905550806000808473ffffffffffffffffffffffffffffffffffffffff1673ffffffffffffffffffffffffffffffffffffffff16815260200190815260200160002060008282546115df91906135b6565b925050819055508173ffffffffffffffffffffffffffffffffffffffff16600073ffffffffffffffffffffffffffffffffffffffff167fddf252ad1be2c89b69c2b068fc378daa952ba7f163c4a11628f55a4df523b3ef836040516116449190613515565b60405180910390a3611658600083836122d9565b5050565b6000818361166a91906135b6565b905092915050565b60007bffffffffffffffffffffffffffffffffffffffffffffffffffffffff80168211156116d5576040517f08c379a00000000000000000000000000000000000000000000000000000000081526004016116cc9061343a565b60405180910390fd5b819050919050565b600063ffffffff8016821115611728576040517f08c379a000000000000000000000000000000000000000000000000000000000815260040161171f9061347a565b60405180910390fd5b819050919050565b61173b83838361175b565b61175661174784610a72565b61175084610a72565b836122e9565b505050565b505050565b6000818361176e9190613697565b905092915050565b600033905090565b600073ffffffffffffffffffffffffffffffffffffffff168373ffffffffffffffffffffffffffffffffffffffff1614156117ee576040517f08c379a00000000000000000000000000000000000000000000000000000000081526004016117e59061349a565b60405180910390fd5b600073ffffffffffffffffffffffffffffffffffffffff168273ffffffffffffffffffffffffffffffffffffffff16141561185e576040517f08c379a0000000000000000000000000000000000000000000000000000000008152600401611855906132da565b60405180910390fd5b80600160008573ffffffffffffffffffffffffffffffffffffffff1673ffffffffffffffffffffffffffffffffffffffff16815260200190815260200160002060008473ffffffffffffffffffffffffffffffffffffffff1673ffffffffffffffffffffffffffffffffffffffff168152602001908152602001600020819055508173ffffffffffffffffffffffffffffffffffffffff168373ffffffffffffffffffffffffffffffffffffffff167f8c5be1e5ebec7d5bd14f71427d1e84f3dd0314c0f7b2291e5b200ac8c7c3b9258360405161193c9190613515565b60405180910390a3505050565b600073ffffffffffffffffffffffffffffffffffffffff168373ffffffffffffffffffffffffffffffffffffffff1614156119b9576040517f08c379a00000000000000000000000000000000000000000000000000000000081526004016119b09061345a565b60405180910390fd5b600073ffffffffffffffffffffffffffffffffffffffff168273ffffffffffffffffffffffffffffffffffffffff161415611a29576040517f08c379a0000000000000000000000000000000000000000000000000000000008152600401611a209061321a565b60405180910390fd5b611a348383836122d4565b60008060008573ffffffffffffffffffffffffffffffffffffffff1673ffffffffffffffffffffffffffffffffffffffff16815260200190815260200160002054905081811015611aba576040517f08c379a0000000000000000000000000000000000000000000000000000000008152600401611ab19061333a565b60405180910390fd5b8181036000808673ffffffffffffffffffffffffffffffffffffffff1673ffffffffffffffffffffffffffffffffffffffff16815260200190815260200160002081905550816000808573ffffffffffffffffffffffffffffffffffffffff1673ffffffffffffffffffffffffffffffffffffffff1681526020019081526020016000206000828254611b4d91906135b6565b925050819055508273ffffffffffffffffffffffffffffffffffffffff168473ffffffffffffffffffffffffffffffffffffffff167fddf252ad1be2c89b69c2b068fc378daa952ba7f163c4a11628f55a4df523b3ef84604051611bb19190613515565b60405180910390a3611bc48484846122d9565b50505050565b60007f0000000000000000000000000000000000000000000000000000000000000000461415611c1c577f00000000000000000000000000000000000000000000000000000000000000009050611c8a565b611c877f00000000000000000000000000000000000000000000000000000000000000007f00000000000000000000000000000000000000000000000000000000000000007f00000000000000000000000000000000000000000000000000000000000000006124e2565b90505b90565b6000808380549050905060005b81811015611d0c576000611cae828461251c565b905084868281548110611cc457611cc361388d565b5b9060005260206000200160000160009054906101000a900463ffffffff1663ffffffff161115611cf657809250611d06565b600181611d0391906135b6565b91505b50611c9a565b60008214611d6e5784600183611d229190613697565b81548110611d3357611d3261388d565b5b9060005260206000200160000160049054906101000a90047bffffffffffffffffffffffffffffffffffffffffffffffffffffffff16611d71565b60005b7bffffffffffffffffffffffffffffffffffffffffffffffffffffffff169250505092915050565b611da3828261146f565b5050565b6000611db283610a72565b90506000611dbf84610b43565b905082600660008673ffffffffffffffffffffffffffffffffffffffff1673ffffffffffffffffffffffffffffffffffffffff16815260200190815260200160002060006101000a81548173ffffffffffffffffffffffffffffffffffffffff021916908373ffffffffffffffffffffffffffffffffffffffff1602179055508273ffffffffffffffffffffffffffffffffffffffff168273ffffffffffffffffffffffffffffffffffffffff168573ffffffffffffffffffffffffffffffffffffffff167f3134e8a2e6d97e929a7e54011ea5485d7d196dd5f0ba4d4ef95803e8e3fc257f60405160405180910390a4611ebb8284836122e9565b50505050565b6000600960009054906101000a900473ffffffffffffffffffffffffffffffffffffffff16905081600960006101000a81548173ffffffffffffffffffffffffffffffffffffffff021916908373ffffffffffffffffffffffffffffffffffffffff1602179055508173ffffffffffffffffffffffffffffffffffffffff168173ffffffffffffffffffffffffffffffffffffffff167f8be0079c531659141344cd1fd0a4f28419497f9722a3daafe3b4186f6b6457e060405160405180910390a35050565b600081600001549050919050565b6000611fa8611fa2611bca565b83612542565b9050919050565b6000806000611fc087878787612575565b91509150611fcd81612682565b8192505050949350505050565b600080600560008473ffffffffffffffffffffffffffffffffffffffff1673ffffffffffffffffffffffffffffffffffffffff168152602001908152602001600020905061202781611f87565b915061203281612857565b50919050565b60007bffffffffffffffffffffffffffffffffffffffffffffffffffffffff905090565b600080600085805490509050600081146120ca578560018261207e9190613697565b8154811061208f5761208e61388d565b5b9060005260206000200160000160049054906101000a90047bffffffffffffffffffffffffffffffffffffffffffffffffffffffff166120cd565b60005b7bffffffffffffffffffffffffffffffffffffffffffffffffffffffff1692506120fb83858763ffffffff16565b915060008111801561214e575043866001836121179190613697565b815481106121285761212761388d565b5b9060005260206000200160000160009054906101000a900463ffffffff1663ffffffff16145b156121db5761215c82611672565b8660018361216a9190613697565b8154811061217b5761217a61388d565b5b9060005260206000200160000160046101000a8154817bffffffffffffffffffffffffffffffffffffffffffffffffffffffff02191690837bffffffffffffffffffffffffffffffffffffffffffffffffffffffff1602179055506122cb565b8560405180604001604052806121f0436116dd565b63ffffffff16815260200161220485611672565b7bffffffffffffffffffffffffffffffffffffffffffffffffffffffff168152509080600181540180825580915050600190039060005260206000200160009091909190915060008201518160000160006101000a81548163ffffffff021916908363ffffffff16021790555060208201518160000160046101000a8154817bffffffffffffffffffffffffffffffffffffffffffffffffffffffff02191690837bffffffffffffffffffffffffffffffffffffffffffffffffffffffff16021790555050505b50935093915050565b505050565b6122e4838383611730565b505050565b8173ffffffffffffffffffffffffffffffffffffffff168373ffffffffffffffffffffffffffffffffffffffff16141580156123255750600081115b156124dd57600073ffffffffffffffffffffffffffffffffffffffff168373ffffffffffffffffffffffffffffffffffffffff1614612403576000806123ac600760008773ffffffffffffffffffffffffffffffffffffffff1673ffffffffffffffffffffffffffffffffffffffff1681526020019081526020016000206117608561205c565b915091508473ffffffffffffffffffffffffffffffffffffffff167fdec2bacdd2f05b59de34da9b523dff8be42e5e38e818c82fdb0bae774387a72483836040516123f8929190613530565b60405180910390a250505b600073ffffffffffffffffffffffffffffffffffffffff168273ffffffffffffffffffffffffffffffffffffffff16146124dc57600080612485600760008673ffffffffffffffffffffffffffffffffffffffff1673ffffffffffffffffffffffffffffffffffffffff16815260200190815260200160002061165c8561205c565b915091508373ffffffffffffffffffffffffffffffffffffffff167fdec2bacdd2f05b59de34da9b523dff8be42e5e38e818c82fdb0bae774387a72483836040516124d1929190613530565b60405180910390a250505b5b505050565b600083838346306040516020016124fd959493929190613140565b6040516020818303038152906040528051906020012090509392505050565b6000600282841861252d919061360c565b82841661253a91906135b6565b905092915050565b60008282604051602001612557929190613012565b60405160208183030381529060405280519060200120905092915050565b6000807f7fffffffffffffffffffffffffffffff5d576e7357a4501ddfe92f46681b20a08360001c11156125b0576000600391509150612679565b601b8560ff16141580156125c85750601c8560ff1614155b156125da576000600491509150612679565b6000600187878787604051600081526020016040526040516125ff9493929190613193565b6020604051602081039080840390855afa158015612621573d6000803e3d6000fd5b505050602060405103519050600073ffffffffffffffffffffffffffffffffffffffff168173ffffffffffffffffffffffffffffffffffffffff16141561267057600060019250925050612679565b80600092509250505b94509492505050565b600060048111156126965761269561382f565b5b8160048111156126a9576126a861382f565b5b14156126b457612854565b600160048111156126c8576126c761382f565b5b8160048111156126db576126da61382f565b5b141561271c576040517f08c379a0000000000000000000000000000000000000000000000000000000008152600401612713906131fa565b60405180910390fd5b600260048111156127305761272f61382f565b5b8160048111156127435761274261382f565b5b1415612784576040517f08c379a000000000000000000000000000000000000000000000000000000000815260040161277b9061327a565b60405180910390fd5b600360048111156127985761279761382f565b5b8160048111156127ab576127aa61382f565b5b14156127ec576040517f08c379a00000000000000000000000000000000000000000000000000000000081526004016127e39061337a565b60405180910390fd5b6004808111156127ff576127fe61382f565b5b8160048111156128125761281161382f565b5b1415612853576040517f08c379a000000000000000000000000000000000000000000000000000000000815260040161284a9061339a565b60405180910390fd5b5b50565b6001816000016000828254019250508190555050565b6040518060400160405280600063ffffffff16815260200160007bffffffffffffffffffffffffffffffffffffffffffffffffffffffff1681525090565b6000813590506128ba81613ee7565b92915050565b6000813590506128cf81613efe565b92915050565b6000813590506128e481613f15565b92915050565b6000813590506128f981613f2c565b92915050565b60008135905061290e81613f43565b92915050565b60006020828403121561292a576129296138bc565b5b6000612938848285016128ab565b91505092915050565b60008060408385031215612958576129576138bc565b5b6000612966858286016128ab565b9250506020612977858286016128ab565b9150509250929050565b60008060006060848603121561299a576129996138bc565b5b60006129a8868287016128ab565b93505060206129b9868287016128ab565b92505060406129ca868287016128d5565b9150509250925092565b600080600080600080600060e0888a0312156129f3576129f26138bc565b5b6000612a018a828b016128ab565b9750506020612a128a828b016128ab565b9650506040612a238a828b016128d5565b9550506060612a348a828b016128d5565b9450506080612a458a828b016128ff565b93505060a0612a568a828b016128c0565b92505060c0612a678a828b016128c0565b91505092959891949750929550565b60008060408385031215612a8d57612a8c6138bc565b5b6000612a9b858286016128ab565b9250506020612aac858286016128d5565b9150509250929050565b60008060008060008060c08789031215612ad357612ad26138bc565b5b6000612ae189828a016128ab565b9650506020612af289828a016128d5565b9550506040612b0389828a016128d5565b9450506060612b1489828a016128ff565b9350506080612b2589828a016128c0565b92505060a0612b3689828a016128c0565b9150509295509295509295565b60008060408385031215612b5a57612b596138bc565b5b6000612b68858286016128ab565b9250506020612b79858286016128ea565b9150509250929050565b600060208284031215612b9957612b986138bc565b5b6000612ba7848285016128d5565b91505092915050565b612bb9816136cb565b82525050565b612bc8816136dd565b82525050565b612bd7816136e9565b82525050565b612bee612be9826136e9565b6137c7565b82525050565b6000612bff8261358f565b612c09818561359a565b9350612c19818560208601613762565b612c22816138c1565b840191505092915050565b6000612c3a60188361359a565b9150612c45826138d2565b602082019050919050565b6000612c5d60238361359a565b9150612c68826138fb565b604082019050919050565b6000612c80601f8361359a565b9150612c8b8261394a565b602082019050919050565b6000612ca3601d8361359a565b9150612cae82613973565b602082019050919050565b6000612cc6601f8361359a565b9150612cd18261399c565b602082019050919050565b6000612ce960198361359a565b9150612cf4826139c5565b602082019050919050565b6000612d0c60268361359a565b9150612d17826139ee565b604082019050919050565b6000612d2f60228361359a565b9150612d3a82613a3d565b604082019050919050565b6000612d5260218361359a565b9150612d5d82613a8c565b604082019050919050565b6000612d756002836135ab565b9150612d8082613adb565b600282019050919050565b6000612d98601d8361359a565b9150612da382613b04565b602082019050919050565b6000612dbb60268361359a565b9150612dc682613b2d565b604082019050919050565b6000612dde60158361359a565b9150612de982613b7c565b602082019050919050565b6000612e0160228361359a565b9150612e0c82613ba5565b604082019050919050565b6000612e2460228361359a565b9150612e2f82613bf4565b604082019050919050565b6000612e47601e8361359a565b9150612e5282613c43565b602082019050919050565b6000612e6a60288361359a565b9150612e7582613c6c565b604082019050919050565b6000612e8d60308361359a565b9150612e9882613cbb565b604082019050919050565b6000612eb060208361359a565b9150612ebb82613d0a565b602082019050919050565b6000612ed360278361359a565b9150612ede82613d33565b604082019050919050565b6000612ef660258361359a565b9150612f0182613d82565b604082019050919050565b6000612f1960268361359a565b9150612f2482613dd1565b604082019050919050565b6000612f3c60248361359a565b9150612f4782613e20565b604082019050919050565b6000612f5f60258361359a565b9150612f6a82613e6f565b604082019050919050565b6000612f82601f8361359a565b9150612f8d82613ebe565b602082019050919050565b604082016000820151612fae6000850182612fe5565b506020820151612fc16020850182612fc7565b50505050565b612fd081613713565b82525050565b612fdf8161373b565b82525050565b612fee81613745565b82525050565b612ffd81613745565b82525050565b61300c81613755565b82525050565b600061301d82612d68565b91506130298285612bdd565b6020820191506130398284612bdd565b6020820191508190509392505050565b600060208201905061305e6000830184612bb0565b92915050565b60006020820190506130796000830184612bbf565b92915050565b60006020820190506130946000830184612bce565b92915050565b600060c0820190506130af6000830189612bce565b6130bc6020830188612bb0565b6130c96040830187612bb0565b6130d66060830186612fd6565b6130e36080830185612fd6565b6130f060a0830184612fd6565b979650505050505050565b60006080820190506131106000830187612bce565b61311d6020830186612bb0565b61312a6040830185612fd6565b6131376060830184612fd6565b95945050505050565b600060a0820190506131556000830188612bce565b6131626020830187612bce565b61316f6040830186612bce565b61317c6060830185612fd6565b6131896080830184612bb0565b9695505050505050565b60006080820190506131a86000830187612bce565b6131b56020830186613003565b6131c26040830185612bce565b6131cf6060830184612bce565b95945050505050565b600060208201905081810360008301526131f28184612bf4565b905092915050565b6000602082019050818103600083015261321381612c2d565b9050919050565b6000602082019050818103600083015261323381612c50565b9050919050565b6000602082019050818103600083015261325381612c73565b9050919050565b6000602082019050818103600083015261327381612c96565b9050919050565b6000602082019050818103600083015261329381612cb9565b9050919050565b600060208201905081810360008301526132b381612cdc565b9050919050565b600060208201905081810360008301526132d381612cff565b9050919050565b600060208201905081810360008301526132f381612d22565b9050919050565b6000602082019050818103600083015261331381612d45565b9050919050565b6000602082019050818103600083015261333381612d8b565b9050919050565b6000602082019050818103600083015261335381612dae565b9050919050565b6000602082019050818103600083015261337381612dd1565b9050919050565b6000602082019050818103600083015261339381612df4565b9050919050565b600060208201905081810360008301526133b381612e17565b9050919050565b600060208201905081810360008301526133d381612e3a565b9050919050565b600060208201905081810360008301526133f381612e5d565b9050919050565b6000602082019050818103600083015261341381612e80565b9050919050565b6000602082019050818103600083015261343381612ea3565b9050919050565b6000602082019050818103600083015261345381612ec6565b9050919050565b6000602082019050818103600083015261347381612ee9565b9050919050565b6000602082019050818103600083015261349381612f0c565b9050919050565b600060208201905081810360008301526134b381612f2f565b9050919050565b600060208201905081810360008301526134d381612f52565b9050919050565b600060208201905081810360008301526134f381612f75565b9050919050565b600060408201905061350f6000830184612f98565b92915050565b600060208201905061352a6000830184612fd6565b92915050565b60006040820190506135456000830185612fd6565b6135526020830184612fd6565b9392505050565b600060208201905061356e6000830184612ff4565b92915050565b60006020820190506135896000830184613003565b92915050565b600081519050919050565b600082825260208201905092915050565b600081905092915050565b60006135c18261373b565b91506135cc8361373b565b9250827fffffffffffffffffffffffffffffffffffffffffffffffffffffffffffffffff03821115613601576136006137d1565b5b828201905092915050565b60006136178261373b565b91506136228361373b565b92508261363257613631613800565b5b828204905092915050565b60006136488261373b565b91506136538361373b565b9250817fffffffffffffffffffffffffffffffffffffffffffffffffffffffffffffffff048311821515161561368c5761368b6137d1565b5b828202905092915050565b60006136a28261373b565b91506136ad8361373b565b9250828210156136c0576136bf6137d1565b5b828203905092915050565b60006136d6826136f3565b9050919050565b60008115159050919050565b6000819050919050565b600073ffffffffffffffffffffffffffffffffffffffff82169050919050565b60007bffffffffffffffffffffffffffffffffffffffffffffffffffffffff82169050919050565b6000819050919050565b600063ffffffff82169050919050565b600060ff82169050919050565b60005b83811015613780578082015181840152602081019050613765565b8381111561378f576000848401525b50505050565b600060028204905060018216806137ad57607f821691505b602082108114156137c1576137c061385e565b5b50919050565b6000819050919050565b7f4e487b7100000000000000000000000000000000000000000000000000000000600052601160045260246000fd5b7f4e487b7100000000000000000000000000000000000000000000000000000000600052601260045260246000fd5b7f4e487b7100000000000000000000000000000000000000000000000000000000600052602160045260246000fd5b7f4e487b7100000000000000000000000000000000000000000000000000000000600052602260045260246000fd5b7f4e487b7100000000000000000000000000000000000000000000000000000000600052603260045260246000fd5b600080fd5b6000601f19601f8301169050919050565b7f45434453413a20696e76616c6964207369676e61747572650000000000000000600082015250565b7f45524332303a207472616e7366657220746f20746865207a65726f206164647260008201527f6573730000000000000000000000000000000000000000000000000000000000602082015250565b7f4552433230566f7465733a20626c6f636b206e6f7420796574206d696e656400600082015250565b7f4552433230566f7465733a207369676e61747572652065787069726564000000600082015250565b7f45434453413a20696e76616c6964207369676e6174757265206c656e67746800600082015250565b7f4552433230566f7465733a20696e76616c6964206e6f6e636500000000000000600082015250565b7f4f776e61626c653a206e6577206f776e657220697320746865207a65726f206160008201527f6464726573730000000000000000000000000000000000000000000000000000602082015250565b7f45524332303a20617070726f766520746f20746865207a65726f20616464726560008201527f7373000000000000000000000000000000000000000000000000000000000000602082015250565b7f4f534b593a204d696e742065786365656473206d6178696d756d20616d6f756e60008201527f7400000000000000000000000000000000000000000000000000000000000000602082015250565b7f1901000000000000000000000000000000000000000000000000000000000000600082015250565b7f45524332305065726d69743a206578706972656420646561646c696e65000000600082015250565b7f45524332303a207472616e7366657220616d6f756e742065786365656473206260008201527f616c616e63650000000000000000000000000000000000000000000000000000602082015250565b7f4f534b593a2043616e6e6f74206d696e74207965740000000000000000000000600082015250565b7f45434453413a20696e76616c6964207369676e6174757265202773272076616c60008201527f7565000000000000000000000000000000000000000000000000000000000000602082015250565b7f45434453413a20696e76616c6964207369676e6174757265202776272076616c60008201527f7565000000000000000000000000000000000000000000000000000000000000602082015250565b7f45524332305065726d69743a20696e76616c6964207369676e61747572650000600082015250565b7f45524332303a207472616e7366657220616d6f756e742065786365656473206160008201527f6c6c6f77616e6365000000000000000000000000000000000000000000000000602082015250565b7f4552433230566f7465733a20746f74616c20737570706c79207269736b73206f60008201527f766572666c6f77696e6720766f74657300000000000000000000000000000000602082015250565b7f4f776e61626c653a2063616c6c6572206973206e6f7420746865206f776e6572600082015250565b7f53616665436173743a2076616c756520646f65736e27742066697420696e203260008201527f3234206269747300000000000000000000000000000000000000000000000000602082015250565b7f45524332303a207472616e736665722066726f6d20746865207a65726f20616460008201527f6472657373000000000000000000000000000000000000000000000000000000602082015250565b7f53616665436173743a2076616c756520646f65736e27742066697420696e203360008201527f3220626974730000000000000000000000000000000000000000000000000000602082015250565b7f45524332303a20617070726f76652066726f6d20746865207a65726f2061646460008201527f7265737300000000000000000000000000000000000000000000000000000000602082015250565b7f45524332303a2064656372656173656420616c6c6f77616e63652062656c6f7760008201527f207a65726f000000000000000000000000000000000000000000000000000000602082015250565b7f45524332303a206d696e7420746f20746865207a65726f206164647265737300600082015250565b613ef0816136cb565b8114613efb57600080fd5b50565b613f07816136e9565b8114613f1257600080fd5b50565b613f1e8161373b565b8114613f2957600080fd5b50565b613f3581613745565b8114613f4057600080fd5b50565b613f4c81613755565b8114613f5757600080fd5b5056fea26469706673582212206ac62833dce56502a6626ed462515e8a71995c90471ccfa52facfd3242bcaac564736f6c63430008070033",
  "devdoc": {
    "details": "OpenSky Token.       - Support voting.       - Support for the owner (the DAO) to mint new tokens, at up to 2% PA.",
    "kind": "dev",
    "methods": {
      "DOMAIN_SEPARATOR()": {
        "details": "See {IERC20Permit-DOMAIN_SEPARATOR}."
      },
      "allowance(address,address)": {
        "details": "See {IERC20-allowance}."
      },
      "approve(address,uint256)": {
        "details": "See {IERC20-approve}. Requirements: - `spender` cannot be the zero address."
      },
      "balanceOf(address)": {
        "details": "See {IERC20-balanceOf}."
      },
      "checkpoints(address,uint32)": {
        "details": "Get the `pos`-th checkpoint for `account`."
      },
      "constructor": {
        "details": "Constructor.",
        "params": {
          "receiver": "The address to receive token.",
          "supply": "The number of tokens to issue to the receiver."
        }
      },
      "decimals()": {
        "details": "Returns the number of decimals used to get its user representation. For example, if `decimals` equals `2`, a balance of `505` tokens should be displayed to a user as `5.05` (`505 / 10 ** 2`). Tokens usually opt for a value of 18, imitating the relationship between Ether and Wei. This is the value {ERC20} uses, unless this function is overridden; NOTE: This information is only used for _display_ purposes: it in no way affects any of the arithmetic of the contract, including {IERC20-balanceOf} and {IERC20-transfer}."
      },
      "decreaseAllowance(address,uint256)": {
        "details": "Atomically decreases the allowance granted to `spender` by the caller. This is an alternative to {approve} that can be used as a mitigation for problems described in {IERC20-approve}. Emits an {Approval} event indicating the updated allowance. Requirements: - `spender` cannot be the zero address. - `spender` must have allowance for the caller of at least `subtractedValue`."
      },
      "delegate(address)": {
        "details": "Delegate votes from the sender to `delegatee`."
      },
      "delegateBySig(address,uint256,uint256,uint8,bytes32,bytes32)": {
        "details": "Delegates votes from signer to `delegatee`"
      },
      "delegates(address)": {
        "details": "Get the address `account` is currently delegating to."
      },
      "getPastTotalSupply(uint256)": {
        "details": "Retrieve the `totalSupply` at the end of `blockNumber`. Note, this value is the sum of all balances. It is but NOT the sum of all the delegated votes! Requirements: - `blockNumber` must have been already mined"
      },
      "getPastVotes(address,uint256)": {
        "details": "Retrieve the number of votes for `account` at the end of `blockNumber`. Requirements: - `blockNumber` must have been already mined"
      },
      "getVotes(address)": {
        "details": "Gets the current votes balance for `account`"
      },
      "increaseAllowance(address,uint256)": {
        "details": "Atomically increases the allowance granted to `spender` by the caller. This is an alternative to {approve} that can be used as a mitigation for problems described in {IERC20-approve}. Emits an {Approval} event indicating the updated allowance. Requirements: - `spender` cannot be the zero address."
      },
      "mint(address,uint256)": {
        "details": "Mints new tokens. Can only be executed every `minimumMintInterval`, by the owner, and cannot      exceed `mintCap / 10000` fraction of the current total supply.",
        "params": {
          "amount": "The quantity of tokens to mint.",
          "dest": "The address to mint the new tokens to."
        }
      },
      "name()": {
        "details": "Returns the name of the token."
      },
      "nonces(address)": {
        "details": "See {IERC20Permit-nonces}."
      },
      "numCheckpoints(address)": {
        "details": "Get number of checkpoints for `account`."
      },
      "owner()": {
        "details": "Returns the address of the current owner."
      },
      "permit(address,address,uint256,uint256,uint8,bytes32,bytes32)": {
        "details": "See {IERC20Permit-permit}."
      },
      "renounceOwnership()": {
        "details": "Leaves the contract without owner. It will not be possible to call `onlyOwner` functions anymore. Can only be called by the current owner. NOTE: Renouncing ownership will leave the contract without an owner, thereby removing any functionality that is only available to the owner."
      },
      "symbol()": {
        "details": "Returns the symbol of the token, usually a shorter version of the name."
      },
      "totalSupply()": {
        "details": "See {IERC20-totalSupply}."
      },
      "transfer(address,uint256)": {
        "details": "See {IERC20-transfer}. Requirements: - `recipient` cannot be the zero address. - the caller must have a balance of at least `amount`."
      },
      "transferFrom(address,address,uint256)": {
        "details": "See {IERC20-transferFrom}. Emits an {Approval} event indicating the updated allowance. This is not required by the EIP. See the note at the beginning of {ERC20}. Requirements: - `sender` and `recipient` cannot be the zero address. - `sender` must have a balance of at least `amount`. - the caller must have allowance for ``sender``'s tokens of at least `amount`."
      },
      "transferOwnership(address)": {
        "details": "Transfers ownership of the contract to a new account (`newOwner`). Can only be called by the current owner."
      }
    },
    "version": 1
  },
  "userdoc": {
    "kind": "user",
    "methods": {},
    "version": 1
  },
  "storageLayout": {
    "storage": [
      {
        "astId": 119,
        "contract": "contracts/OSKYToken.sol:OSKYToken",
        "label": "_balances",
        "offset": 0,
        "slot": "0",
        "type": "t_mapping(t_address,t_uint256)"
      },
      {
        "astId": 125,
        "contract": "contracts/OSKYToken.sol:OSKYToken",
        "label": "_allowances",
        "offset": 0,
        "slot": "1",
        "type": "t_mapping(t_address,t_mapping(t_address,t_uint256))"
      },
      {
        "astId": 127,
        "contract": "contracts/OSKYToken.sol:OSKYToken",
        "label": "_totalSupply",
        "offset": 0,
        "slot": "2",
        "type": "t_uint256"
      },
      {
        "astId": 129,
        "contract": "contracts/OSKYToken.sol:OSKYToken",
        "label": "_name",
        "offset": 0,
        "slot": "3",
        "type": "t_string_storage"
      },
      {
        "astId": 131,
        "contract": "contracts/OSKYToken.sol:OSKYToken",
        "label": "_symbol",
        "offset": 0,
        "slot": "4",
        "type": "t_string_storage"
      },
      {
        "astId": 1421,
        "contract": "contracts/OSKYToken.sol:OSKYToken",
        "label": "_nonces",
        "offset": 0,
        "slot": "5",
        "type": "t_mapping(t_address,t_struct(Counter)1631_storage)"
      },
      {
        "astId": 750,
        "contract": "contracts/OSKYToken.sol:OSKYToken",
        "label": "_delegates",
        "offset": 0,
        "slot": "6",
        "type": "t_mapping(t_address,t_address)"
      },
      {
        "astId": 756,
        "contract": "contracts/OSKYToken.sol:OSKYToken",
        "label": "_checkpoints",
        "offset": 0,
        "slot": "7",
        "type": "t_mapping(t_address,t_array(t_struct(Checkpoint)741_storage)dyn_storage)"
      },
      {
        "astId": 760,
        "contract": "contracts/OSKYToken.sol:OSKYToken",
        "label": "_totalSupplyCheckpoints",
        "offset": 0,
        "slot": "8",
        "type": "t_array(t_struct(Checkpoint)741_storage)dyn_storage"
      },
      {
        "astId": 7,
        "contract": "contracts/OSKYToken.sol:OSKYToken",
        "label": "_owner",
        "offset": 0,
        "slot": "9",
        "type": "t_address"
      },
      {
        "astId": 2708,
        "contract": "contracts/OSKYToken.sol:OSKYToken",
        "label": "nextMint",
        "offset": 0,
        "slot": "10",
        "type": "t_uint256"
      }
    ],
    "types": {
      "t_address": {
        "encoding": "inplace",
        "label": "address",
        "numberOfBytes": "20"
      },
      "t_array(t_struct(Checkpoint)741_storage)dyn_storage": {
        "base": "t_struct(Checkpoint)741_storage",
        "encoding": "dynamic_array",
        "label": "struct ERC20Votes.Checkpoint[]",
        "numberOfBytes": "32"
      },
      "t_mapping(t_address,t_address)": {
        "encoding": "mapping",
        "key": "t_address",
        "label": "mapping(address => address)",
        "numberOfBytes": "32",
        "value": "t_address"
      },
      "t_mapping(t_address,t_array(t_struct(Checkpoint)741_storage)dyn_storage)": {
        "encoding": "mapping",
        "key": "t_address",
        "label": "mapping(address => struct ERC20Votes.Checkpoint[])",
        "numberOfBytes": "32",
        "value": "t_array(t_struct(Checkpoint)741_storage)dyn_storage"
      },
      "t_mapping(t_address,t_mapping(t_address,t_uint256))": {
        "encoding": "mapping",
        "key": "t_address",
        "label": "mapping(address => mapping(address => uint256))",
        "numberOfBytes": "32",
        "value": "t_mapping(t_address,t_uint256)"
      },
      "t_mapping(t_address,t_struct(Counter)1631_storage)": {
        "encoding": "mapping",
        "key": "t_address",
        "label": "mapping(address => struct Counters.Counter)",
        "numberOfBytes": "32",
        "value": "t_struct(Counter)1631_storage"
      },
      "t_mapping(t_address,t_uint256)": {
        "encoding": "mapping",
        "key": "t_address",
        "label": "mapping(address => uint256)",
        "numberOfBytes": "32",
        "value": "t_uint256"
      },
      "t_string_storage": {
        "encoding": "bytes",
        "label": "string",
        "numberOfBytes": "32"
      },
      "t_struct(Checkpoint)741_storage": {
        "encoding": "inplace",
        "label": "struct ERC20Votes.Checkpoint",
        "members": [
          {
            "astId": 738,
            "contract": "contracts/OSKYToken.sol:OSKYToken",
            "label": "fromBlock",
            "offset": 0,
            "slot": "0",
            "type": "t_uint32"
          },
          {
            "astId": 740,
            "contract": "contracts/OSKYToken.sol:OSKYToken",
            "label": "votes",
            "offset": 4,
            "slot": "0",
            "type": "t_uint224"
          }
        ],
        "numberOfBytes": "32"
      },
      "t_struct(Counter)1631_storage": {
        "encoding": "inplace",
        "label": "struct Counters.Counter",
        "members": [
          {
            "astId": 1630,
            "contract": "contracts/OSKYToken.sol:OSKYToken",
            "label": "_value",
            "offset": 0,
            "slot": "0",
            "type": "t_uint256"
          }
        ],
        "numberOfBytes": "32"
      },
      "t_uint224": {
        "encoding": "inplace",
        "label": "uint224",
        "numberOfBytes": "28"
      },
      "t_uint256": {
        "encoding": "inplace",
        "label": "uint256",
        "numberOfBytes": "32"
      },
      "t_uint32": {
        "encoding": "inplace",
        "label": "uint32",
        "numberOfBytes": "4"
      }
    }
  }
}